{
  "contractName": "ToDo",
  "abi": [
    {
      "inputs": [],
      "stateMutability": "nonpayable",
      "type": "constructor"
    },
    {
      "anonymous": false,
      "inputs": [
        {
          "components": [
            {
              "internalType": "uint256",
              "name": "id",
              "type": "uint256"
            },
            {
              "internalType": "uint256",
              "name": "date",
              "type": "uint256"
            },
            {
              "internalType": "string",
              "name": "content",
              "type": "string"
            },
            {
              "internalType": "string",
              "name": "author",
              "type": "string"
            },
            {
              "internalType": "bool",
              "name": "done",
              "type": "bool"
            },
            {
              "internalType": "uint256",
              "name": "dateComplete",
              "type": "uint256"
            }
          ],
          "indexed": false,
          "internalType": "struct ToDo.Task",
          "name": "",
          "type": "tuple"
        }
      ],
      "name": "TaskCreated",
      "type": "event"
    },
    {
      "anonymous": false,
      "inputs": [
        {
          "indexed": false,
          "internalType": "uint256",
          "name": "id",
          "type": "uint256"
        },
        {
          "indexed": false,
          "internalType": "bool",
          "name": "done",
          "type": "bool"
        },
        {
          "indexed": false,
          "internalType": "uint256",
          "name": "date",
          "type": "uint256"
        }
      ],
      "name": "TaskStatusToggled",
      "type": "event"
    },
    {
      "inputs": [
        {
          "internalType": "string",
          "name": "_content",
          "type": "string"
        },
        {
          "internalType": "string",
          "name": "_author",
          "type": "string"
        }
      ],
      "name": "createTask",
      "outputs": [],
      "stateMutability": "nonpayable",
      "type": "function"
    },
    {
      "inputs": [
        {
          "internalType": "uint256",
          "name": "_id",
          "type": "uint256"
        }
      ],
      "name": "getTask",
      "outputs": [
        {
          "components": [
            {
              "internalType": "uint256",
              "name": "id",
              "type": "uint256"
            },
            {
              "internalType": "uint256",
              "name": "date",
              "type": "uint256"
            },
            {
              "internalType": "string",
              "name": "content",
              "type": "string"
            },
            {
              "internalType": "string",
              "name": "author",
              "type": "string"
            },
            {
              "internalType": "bool",
              "name": "done",
              "type": "bool"
            },
            {
              "internalType": "uint256",
              "name": "dateComplete",
              "type": "uint256"
            }
          ],
          "internalType": "struct ToDo.Task",
          "name": "",
          "type": "tuple"
        }
      ],
      "stateMutability": "view",
      "type": "function",
      "constant": true
    },
    {
      "inputs": [],
      "name": "getTasks",
      "outputs": [
        {
          "components": [
            {
              "internalType": "uint256",
              "name": "id",
              "type": "uint256"
            },
            {
              "internalType": "uint256",
              "name": "date",
              "type": "uint256"
            },
            {
              "internalType": "string",
              "name": "content",
              "type": "string"
            },
            {
              "internalType": "string",
              "name": "author",
              "type": "string"
            },
            {
              "internalType": "bool",
              "name": "done",
              "type": "bool"
            },
            {
              "internalType": "uint256",
              "name": "dateComplete",
              "type": "uint256"
            }
          ],
          "internalType": "struct ToDo.Task[]",
          "name": "",
          "type": "tuple[]"
        }
      ],
      "stateMutability": "view",
      "type": "function",
      "constant": true
    },
    {
      "inputs": [],
      "name": "getTaskIds",
      "outputs": [
        {
          "internalType": "uint256[]",
          "name": "",
          "type": "uint256[]"
        }
      ],
      "stateMutability": "view",
      "type": "function",
      "constant": true
    },
    {
      "inputs": [
        {
          "internalType": "uint256",
          "name": "_id",
          "type": "uint256"
        }
      ],
      "name": "toggleDone",
      "outputs": [],
      "stateMutability": "nonpayable",
      "type": "function"
    }
  ],
  "bytecode": "0x608060405234801561001057600080fd5b5060008081905550610f9e806100276000396000f3fe608060405234801561001057600080fd5b50600436106100575760003560e01c806304a87e381461005c5780631d65e77e1461007a578063292a4585146100aa578063bcd14805146100c6578063d81ef739146100e4575b600080fd5b610064610100565b6040516100719190610a4c565b60405180910390f35b610094600480360381019061008f9190610aae565b61031f565b6040516100a19190610b6b565b60405180910390f35b6100c460048036038101906100bf9190610cc2565b6104cf565b005b6100ce610614565b6040516100db9190610de9565b60405180910390f35b6100fe60048036038101906100f99190610aae565b61066c565b005b60606000805467ffffffffffffffff81111561011f5761011e610b97565b5b60405190808252806020026020018201604052801561015857816020015b610145610752565b81526020019060019003908161013d5790505b5090506000600190505b600054811161031757600260008281526020019081526020016000206040518060c001604052908160008201548152602001600182015481526020016002820180546101ad90610e3a565b80601f01602080910402602001604051908101604052809291908181526020018280546101d990610e3a565b80156102265780601f106101fb57610100808354040283529160200191610226565b820191906000526020600020905b81548152906001019060200180831161020957829003601f168201915b5050505050815260200160038201805461023f90610e3a565b80601f016020809104026020016040519081016040528092919081815260200182805461026b90610e3a565b80156102b85780601f1061028d576101008083540402835291602001916102b8565b820191906000526020600020905b81548152906001019060200180831161029b57829003601f168201915b505050505081526020016004820160009054906101000a900460ff161515151581526020016005820154815250508282815181106102f9576102f8610e6c565b5b6020026020010181905250808061030f90610eca565b915050610162565b508091505090565b610327610752565b8160006002600083815260200190815260200160002060000154141561034c57600080fd5b600260008481526020019081526020016000206040518060c0016040529081600082015481526020016001820154815260200160028201805461038e90610e3a565b80601f01602080910402602001604051908101604052809291908181526020018280546103ba90610e3a565b80156104075780601f106103dc57610100808354040283529160200191610407565b820191906000526020600020905b8154815290600101906020018083116103ea57829003601f168201915b5050505050815260200160038201805461042090610e3a565b80601f016020809104026020016040519081016040528092919081815260200182805461044c90610e3a565b80156104995780601f1061046e57610100808354040283529160200191610499565b820191906000526020600020905b81548152906001019060200180831161047c57829003601f168201915b505050505081526020016004820160009054906101000a900460ff16151515158152602001600582015481525050915050919050565b6000808154809291906104e190610eca565b919050555060006040518060c00160405280600054815260200142815260200184815260200183815260200160001515815260200160008152509050600160005490806001815401808255809150506001900390600052602060002001600090919091909150558060026000805481526020019081526020016000206000820151816000015560208201518160010155604082015181600201908051906020019061058d92919061078a565b5060608201518160030190805190602001906105aa92919061078a565b5060808201518160040160006101000a81548160ff02191690831515021790555060a082015181600501559050507f1c794da07d39c38f32d525f7583199cc666ba61b1424de8c78e02c7839f37349816040516106079190610b6b565b60405180910390a1505050565b6060600180548060200260200160405190810160405280929190818152602001828054801561066257602002820191906000526020600020905b81548152602001906001019080831161064e575b5050505050905090565b8060006002600083815260200190815260200160002060000154141561069157600080fd5b60006002600084815260200190815260200160002090508060040160009054906101000a900460ff16158160040160006101000a81548160ff0219169083151502179055508060040160009054906101000a900460ff166106f35760006106f5565b425b81600501819055507fcb1ceae718a6ae11d5daf00e292e318717e0acf2d326ed670df0e5ff67ba5000838260040160009054906101000a900460ff16836005015460405161074593929190610f31565b60405180910390a1505050565b6040518060c0016040528060008152602001600081526020016060815260200160608152602001600015158152602001600081525090565b82805461079690610e3a565b90600052602060002090601f0160209004810192826107b857600085556107ff565b82601f106107d157805160ff19168380011785556107ff565b828001600101855582156107ff579182015b828111156107fe5782518255916020019190600101906107e3565b5b50905061080c9190610810565b5090565b5b80821115610829576000816000905550600101610811565b5090565b600081519050919050565b600082825260208201905092915050565b6000819050602082019050919050565b6000819050919050565b61086c81610859565b82525050565b600081519050919050565b600082825260208201905092915050565b60005b838110156108ac578082015181840152602081019050610891565b838111156108bb576000848401525b50505050565b6000601f19601f8301169050919050565b60006108dd82610872565b6108e7818561087d565b93506108f781856020860161088e565b610900816108c1565b840191505092915050565b60008115159050919050565b6109208161090b565b82525050565b600060c08301600083015161093e6000860182610863565b5060208301516109516020860182610863565b506040830151848203604086015261096982826108d2565b9150506060830151848203606086015261098382826108d2565b91505060808301516109986080860182610917565b5060a08301516109ab60a0860182610863565b508091505092915050565b60006109c28383610926565b905092915050565b6000602082019050919050565b60006109e28261082d565b6109ec8185610838565b9350836020820285016109fe85610849565b8060005b85811015610a3a5784840389528151610a1b85826109b6565b9450610a26836109ca565b925060208a01995050600181019050610a02565b50829750879550505050505092915050565b60006020820190508181036000830152610a6681846109d7565b905092915050565b6000604051905090565b600080fd5b600080fd5b610a8b81610859565b8114610a9657600080fd5b50565b600081359050610aa881610a82565b92915050565b600060208284031215610ac457610ac3610a78565b5b6000610ad284828501610a99565b91505092915050565b600060c083016000830151610af36000860182610863565b506020830151610b066020860182610863565b5060408301518482036040860152610b1e82826108d2565b91505060608301518482036060860152610b3882826108d2565b9150506080830151610b4d6080860182610917565b5060a0830151610b6060a0860182610863565b508091505092915050565b60006020820190508181036000830152610b858184610adb565b905092915050565b600080fd5b600080fd5b7f4e487b7100000000000000000000000000000000000000000000000000000000600052604160045260246000fd5b610bcf826108c1565b810181811067ffffffffffffffff82111715610bee57610bed610b97565b5b80604052505050565b6000610c01610a6e565b9050610c0d8282610bc6565b919050565b600067ffffffffffffffff821115610c2d57610c2c610b97565b5b610c36826108c1565b9050602081019050919050565b82818337600083830152505050565b6000610c65610c6084610c12565b610bf7565b905082815260208101848484011115610c8157610c80610b92565b5b610c8c848285610c43565b509392505050565b600082601f830112610ca957610ca8610b8d565b5b8135610cb9848260208601610c52565b91505092915050565b60008060408385031215610cd957610cd8610a78565b5b600083013567ffffffffffffffff811115610cf757610cf6610a7d565b5b610d0385828601610c94565b925050602083013567ffffffffffffffff811115610d2457610d23610a7d565b5b610d3085828601610c94565b9150509250929050565b600081519050919050565b600082825260208201905092915050565b6000819050602082019050919050565b6000610d728383610863565b60208301905092915050565b6000602082019050919050565b6000610d9682610d3a565b610da08185610d45565b9350610dab83610d56565b8060005b83811015610ddc578151610dc38882610d66565b9750610dce83610d7e565b925050600181019050610daf565b5085935050505092915050565b60006020820190508181036000830152610e038184610d8b565b905092915050565b7f4e487b7100000000000000000000000000000000000000000000000000000000600052602260045260246000fd5b60006002820490506001821680610e5257607f821691505b60208210811415610e6657610e65610e0b565b5b50919050565b7f4e487b7100000000000000000000000000000000000000000000000000000000600052603260045260246000fd5b7f4e487b7100000000000000000000000000000000000000000000000000000000600052601160045260246000fd5b6000610ed582610859565b91507fffffffffffffffffffffffffffffffffffffffffffffffffffffffffffffffff821415610f0857610f07610e9b565b5b600182019050919050565b610f1c81610859565b82525050565b610f2b8161090b565b82525050565b6000606082019050610f466000830186610f13565b610f536020830185610f22565b610f606040830184610f13565b94935050505056fea26469706673582212208432aea4716d755af99722153408e7033fe630df5038b6e975276cb09d97bc4164736f6c63430008090033",
  "immutableReferences": {},
  "source": "// SPDX-License-Identifier: MIT\npragma solidity >=0.4.22 <0.9.0;\n\ncontract ToDo {\n    struct Task {\n        uint256 id;\n        uint256 date;\n        string content;\n        string author;\n        bool done;\n        uint256 dateComplete;\n    }\n\n    uint256 lastTaskId;\n    uint256[] taskIds;\n    mapping(uint256 => Task) tasks;\n\n    constructor() {\n        lastTaskId = 0;\n    }\n\n    event TaskCreated(Task);\n    event TaskStatusToggled(uint256 id, bool done, uint256 date);\n\n    // Create task (content, author)\n    function createTask(string memory _content, string memory _author) public {\n        lastTaskId++;\n        Task memory newTask = Task(\n            lastTaskId,\n            block.timestamp,\n            _content,\n            _author,\n            false,\n            0\n        );\n        taskIds.push(lastTaskId);\n        tasks[lastTaskId] = newTask;\n        emit TaskCreated(newTask);\n    }\n\n    // Get task\n    function getTask(uint256 _id)\n        public\n        view\n        taskExists(_id)\n        returns (Task memory)\n    {\n        return tasks[_id];\n    }\n\n    // THIS DOESN\"T WORK FOR SOME REASON\n    function getTasks() external view returns (Task[] memory) {\n        Task[] memory _tasks = new Task[](lastTaskId);\n        for (uint256 i = 1; i <= lastTaskId; i++) {\n            _tasks[i] = tasks[i];\n        }\n        return _tasks;\n    }\n\n    function getTaskIds() public view returns (uint256[] memory) {\n        return taskIds;\n    }\n\n    function toggleDone(uint256 _id) external taskExists(_id) {\n        Task storage task = tasks[_id];\n        task.done = !task.done;\n        task.dateComplete = task.done ? block.timestamp : 0;\n        emit TaskStatusToggled(_id, task.done, task.dateComplete);\n    }\n\n    modifier taskExists(uint256 id) {\n        if (tasks[id].id == 0) {\n            revert();\n        }\n        _;\n    }\n}\n",
  "sourcePath": "/Users/bse/todo_toplevel/todo-app/truffle/contracts/ToDo.sol",
  "compiler": {
    "name": "solc",
    "version": "0.8.9+commit.e5eed63a.Emscripten.clang"
  },
  "schemaVersion": "3.4.3",
  "updatedAt": "2021-10-01T15:00:42.622Z",
  "networkType": "ethereum",
  "devdoc": {
    "kind": "dev",
    "methods": {},
    "version": 1
  },
  "userdoc": {
    "kind": "user",
    "methods": {},
    "version": 1
  }
}